{
  "contractName": "addBlock",
  "abi": [
    {
      "constant": true,
      "inputs": [
        {
          "name": "key",
          "type": "uint256"
        }
      ],
      "name": "getID",
      "outputs": [
        {
          "name": "",
          "type": "uint256"
        }
      ],
      "payable": false,
      "stateMutability": "view",
      "type": "function"
    },
    {
      "constant": true,
      "inputs": [
        {
          "name": "key",
          "type": "uint256"
        }
      ],
      "name": "getAge",
      "outputs": [
        {
          "name": "",
          "type": "uint256"
        }
      ],
      "payable": false,
      "stateMutability": "view",
      "type": "function"
    },
    {
      "constant": false,
      "inputs": [
        {
          "name": "data",
          "type": "bytes32"
        },
        {
          "name": "uage",
          "type": "uint8"
        },
        {
          "name": "uid",
          "type": "uint256"
        }
      ],
      "name": "addData",
      "outputs": [],
      "payable": false,
      "stateMutability": "nonpayable",
      "type": "function"
    },
    {
      "constant": true,
      "inputs": [
        {
          "name": "key",
          "type": "uint256"
        }
      ],
      "name": "getName",
      "outputs": [
        {
          "name": "",
          "type": "bytes32"
        }
      ],
      "payable": false,
      "stateMutability": "view",
      "type": "function"
    },
    {
      "constant": true,
      "inputs": [
        {
          "name": "",
          "type": "uint256"
        }
      ],
      "name": "blockchain",
      "outputs": [
        {
          "name": "age",
          "type": "uint8"
        },
        {
          "name": "id",
          "type": "uint256"
        },
        {
          "name": "name",
          "type": "bytes32"
        }
      ],
      "payable": false,
      "stateMutability": "view",
      "type": "function"
    }
  ],
  "bytecode": "0x6060604052341561000f57600080fd5b6101e08061001e6000396000f300606060405263ffffffff7c01000000000000000000000000000000000000000000000000000000006000350416630d18e43c81146100685780630e37008a1461009057806343f0cec6146100a65780636b8ff574146100c7578063c25b1eaf146100dd57600080fd5b341561007357600080fd5b61007e60043561011b565b60405190815260200160405180910390f35b341561009b57600080fd5b61007e600435610131565b34156100b157600080fd5b6100c560043560ff60243516604435610146565b005b34156100d257600080fd5b61007e600435610179565b34156100e857600080fd5b6100f360043561018e565b60405160ff909316835260208301919091526040808301919091526060909101905180910390f35b6000908152600160208190526040909120015490565b60009081526001602052604090205460ff1690565b600080546001908101808355825260208190526040909120805460ff191660ff9490941693909317835582015560020155565b60009081526001602052604090206002015490565b600160208190526000918252604090912080549181015460029091015460ff90921691835600a165627a7a723058209e820df1d3036d21345958ea5eeab6bafe9ae62e8f3d27298d10c1a75b3022950029",
  "source": "//version pragma - used to reject being compiled with future compiler versions that might introduce incompatible changes\n//confirms that code will always compile as intended and avoids problems with future versions\npragma solidity ^0.4.4;\n\n/*\n    Quick writeup here:\n    blockid is the key to the mapping, in order to access previously stored data we need to pass it the key.\n    This is needed because of how we are storing the data, think of mappings like arrays, but it's a hash table instead\n    This is why we need a key.\n    As for the struct, they work pretty much like you would expect, you can create mappings of them, and you can call elements with foo[key].bar\n    The function addBlock is transactional, meaning it modifies storage on the contract.\n    Storage is physically stored within the blockchain, unlike memory, which is temporary.\n    All the getters are keyworded with \"view\"\n    View tells the compiler these functions do not change the contract state, but do look at the state itself.\n    This is the only way to return values from storage that I know of.\n    I hope this helps in you understanding what is happening in this contract!\n\n*/\ncontract addBlock {\n\n    //new block structure, stores name age and ID\n    struct NewBlock {\n        uint8 age;\n        uint id;\n        bytes32 name;\n    }\n    //id for the address of struct mapping\n    uint blockid;\n\n    //mapping allows you to use a key to map a hash table of structs in this case\n    //uint256 is the key type, and NewBlock is what data type is being mapped.\n    mapping(uint256 => NewBlock) public blockchain;\n\n\n    // function to add a block of data to the blockchain\n    function addData (bytes32 data, uint8 uage, uint uid) public {\n\n        //iterates key to indicate new struct\n        blockid++;\n        //\"pointer\" to new data struct, makes it easier on us\n        var n = blockchain[blockid];\n\n        //sets the data\n        n.age = uage;\n        n.id = uid;\n        n.name = data;\n    }\n\n\n    //getters using key pased in from function\n    function getID(uint256 key) public view returns (uint) {\n        return blockchain[key].id;\n    }\n\n    function getAge(uint256 key) public view returns (uint) {\n        return blockchain[key].age;\n    }\n    function getName(uint256 key) public view returns (bytes32) {\n        return blockchain[key].name;    \n    }\n    \n\n}\n",
  "sourcePath": "/home/vanessa_soares/blockchains_project/contracts/addBlock.sol",
  "schemaVersion": "1.0.0",
  "updatedAt": "2017-11-28T20:39:10.085Z"
}