{
  "contractName": "AddBlock",
  "abi": [
    {
      "constant": false,
      "inputs": [
        {
          "name": "uID",
          "type": "uint256"
        },
        {
          "name": "uage",
          "type": "uint256"
        },
        {
          "name": "uname",
          "type": "string"
        }
      ],
      "name": "storeData",
      "outputs": [],
      "payable": false,
      "stateMutability": "nonpayable",
      "type": "function"
    },
    {
      "inputs": [],
      "payable": false,
      "stateMutability": "nonpayable",
      "type": "constructor"
    }
  ],
  "bytecode": "0x6060604052341561000f57600080fd5b6101b08061001e6000396000f300606060405260043610610041576000357c0100000000000000000000000000000000000000000000000000000000900463ffffffff168063f4e0346914610046575b600080fd5b341561005157600080fd5b6100b3600480803590602001909190803590602001909190803590602001908201803590602001908080601f016020809104026020016040519081016040528093929190818152602001838380828437820191505050505050919050506100b5565b005b826000819055508160018190555080600290805190602001906100d99291906100df565b50505050565b828054600181600116156101000203166002900490600052602060002090601f016020900481019282601f1061012057805160ff191683800117855561014e565b8280016001018555821561014e579182015b8281111561014d578251825591602001919060010190610132565b5b50905061015b919061015f565b5090565b61018191905b8082111561017d576000816000905550600101610165565b5090565b905600a165627a7a723058209ae8e5cd24d3d88e8099a793fcef41b55d12411b6123926c956c3f8756a5dbb40029",
  "source": "pragma solidity ^0.4.4;\n\ncontract AddBlock {\n  uint ID;\n  uint age;\n  string name;\n  function AddBlock() {\n    // constructor\n  }\n  //store id, age and name to the contract\n  // This is a transactional function\n  function storeData(uint uID, uint uage, string uname) {\n    ID = uID;\n    age = uage;\n    name = uname;\n  }\n}\n",
  "sourcePath": "/home/design/Blockchains_project/contracts/AddBlock.sol",
  "compiler": {
    "name": "solc",
    "version": "0.4.18+commit.9cf6e910.Emscripten.clang"
  },
  "schemaVersion": "1.0.1",
  "updatedAt": "2017-11-17T19:06:50.652Z"
}