{
  "contractName": "AddBlock",
  "abi": [
    {
      "constant": false,
      "inputs": [
        {
          "name": "uID",
          "type": "uint256"
        },
        {
          "name": "uage",
          "type": "uint256"
        },
        {
          "name": "uname",
          "type": "string"
        }
      ],
      "name": "getName",
      "outputs": [
        {
          "name": "",
          "type": "string"
        }
      ],
      "payable": false,
      "stateMutability": "nonpayable",
      "type": "function"
    },
    {
      "inputs": [],
      "payable": false,
      "stateMutability": "nonpayable",
      "type": "function",
      "constant": false,
      "name": "getAge",
      "outputs": [
        {
          "name": "",
          "type": "uint256"
        }
      ]
    },
    {
      "constant": false,
      "inputs": [],
      "name": "getID",
      "outputs": [
        {
          "name": "",
          "type": "uint256"
        }
      ],
      "payable": false,
      "stateMutability": "nonpayable",
      "type": "function"
    },
    {
      "inputs": [
        {
          "name": "uID",
          "type": "uint256"
        },
        {
          "name": "uage",
          "type": "uint256"
        },
        {
          "name": "uname",
          "type": "string"
        }
      ],
      "payable": false,
      "stateMutability": "nonpayable",
      "type": "constructor"
    }
  ],
  "bytecode": "0x6060604052341561000f57600080fd5b6040516104473803806104478339810160405280805190602001909190805190602001909190805182019190505061005b8383836100636401000000000261020b176401000000009004565b505050610132565b8260008190555081600181905550806002908051906020019061008792919061008d565b50505050565b828054600181600116156101000203166002900490600052602060002090601f016020900481019282601f106100ce57805160ff19168380011785556100fc565b828001600101855582156100fc579182015b828111156100fb5782518255916020019190600101906100e0565b5b509050610109919061010d565b5090565b61012f91905b8082111561012b576000816000905550600101610113565b5090565b90565b610306806101416000396000f300606060405260043610610057576000357c0100000000000000000000000000000000000000000000000000000000900463ffffffff16806317d7de7c1461005c578063967e6e65146100ea578063ab9dbd0714610113575b600080fd5b341561006757600080fd5b61006f61013c565b6040518080602001828103825283818151815260200191508051906020019080838360005b838110156100af578082015181840152602081019050610094565b50505050905090810190601f1680156100dc5780820380516001836020036101000a031916815260200191505b509250505060405180910390f35b34156100f557600080fd5b6100fd6101e4565b6040518082815260200191505060405180910390f35b341561011e57600080fd5b6101266101ee565b6040518082815260200191505060405180910390f35b6101446101f7565b60028054600181600116156101000203166002900480601f0160208091040260200160405190810160405280929190818152602001828054600181600116156101000203166002900480156101da5780601f106101af576101008083540402835291602001916101da565b820191906000526020600020905b8154815290600101906020018083116101bd57829003601f168201915b5050505050905090565b6000600154905090565b60008054905090565b602060405190810160405280600081525090565b8260008190555081600181905550806002908051906020019061022f929190610235565b50505050565b828054600181600116156101000203166002900490600052602060002090601f016020900481019282601f1061027657805160ff19168380011785556102a4565b828001600101855582156102a4579182015b828111156102a3578251825591602001919060010190610288565b5b5090506102b191906102b5565b5090565b6102d791905b808211156102d35760008160009055506001016102bb565b5090565b905600a165627a7a723058200b0e7ef9aade1d2e0de01facdd800a7e2ca5c82192cac946759424c4b4912bbb0029",
  "source": "pragma solidity ^0.4.4;\n\ncontract AddBlock {\n  \n  uint private ID;\n  uint private age;\n  string private name;\n  function AddBlock(uint uID, uint uage, string uname) public {\n    // constructor\n    storeData(uID, uage, uname);\n  }\n  //store id, age and name to the contract\n  // This is a transactional function\n  function storeData(uint uID, uint uage, string uname) private {\n    ID = uID;\n    age = uage;\n    name = uname;\n  }\n  function getID() public returns (uint) {\n    return ID;\n  }\n  function getName() public returns (string) {\n    return name;\n  }\n  function getAge() public returns (uint) {\n    return age;\n  }\n}\n",
  "sourcePath": "/home/design/Blockchains_project/contracts/AddBlock.sol",
  "compiler": {
    "name": "solc",
    "version": "0.4.18+commit.9cf6e910.Emscripten.clang"
  },
  "schemaVersion": "1.0.1",
  "updatedAt": "2017-11-21T20:30:31.635Z"
}